{
  "_format": "hh-sol-artifact-1",
  "contractName": "MyEpicNFT",
  "sourceName": "contracts/MyEpicNFT.sol",
  "abi": [
    {
      "inputs": [],
      "stateMutability": "nonpayable",
      "type": "constructor"
    },
    {
      "anonymous": false,
      "inputs": [
        {
          "indexed": true,
          "internalType": "address",
          "name": "owner",
          "type": "address"
        },
        {
          "indexed": true,
          "internalType": "address",
          "name": "approved",
          "type": "address"
        },
        {
          "indexed": true,
          "internalType": "uint256",
          "name": "tokenId",
          "type": "uint256"
        }
      ],
      "name": "Approval",
      "type": "event"
    },
    {
      "anonymous": false,
      "inputs": [
        {
          "indexed": true,
          "internalType": "address",
          "name": "owner",
          "type": "address"
        },
        {
          "indexed": true,
          "internalType": "address",
          "name": "operator",
          "type": "address"
        },
        {
          "indexed": false,
          "internalType": "bool",
          "name": "approved",
          "type": "bool"
        }
      ],
      "name": "ApprovalForAll",
      "type": "event"
    },
    {
      "anonymous": false,
      "inputs": [
        {
          "indexed": false,
          "internalType": "address",
          "name": "sender",
          "type": "address"
        },
        {
          "indexed": false,
          "internalType": "uint256",
          "name": "tokenId",
          "type": "uint256"
        }
      ],
      "name": "NewEpicNFTMinted",
      "type": "event"
    },
    {
      "anonymous": false,
      "inputs": [
        {
          "indexed": true,
          "internalType": "address",
          "name": "from",
          "type": "address"
        },
        {
          "indexed": true,
          "internalType": "address",
          "name": "to",
          "type": "address"
        },
        {
          "indexed": true,
          "internalType": "uint256",
          "name": "tokenId",
          "type": "uint256"
        }
      ],
      "name": "Transfer",
      "type": "event"
    },
    {
      "inputs": [
        {
          "internalType": "address",
          "name": "to",
          "type": "address"
        },
        {
          "internalType": "uint256",
          "name": "tokenId",
          "type": "uint256"
        }
      ],
      "name": "approve",
      "outputs": [],
      "stateMutability": "nonpayable",
      "type": "function"
    },
    {
      "inputs": [
        {
          "internalType": "address",
          "name": "owner",
          "type": "address"
        }
      ],
      "name": "balanceOf",
      "outputs": [
        {
          "internalType": "uint256",
          "name": "",
          "type": "uint256"
        }
      ],
      "stateMutability": "view",
      "type": "function"
    },
    {
      "inputs": [
        {
          "internalType": "uint256",
          "name": "tokenId",
          "type": "uint256"
        }
      ],
      "name": "getApproved",
      "outputs": [
        {
          "internalType": "address",
          "name": "",
          "type": "address"
        }
      ],
      "stateMutability": "view",
      "type": "function"
    },
    {
      "inputs": [],
      "name": "getTotalNFTsMintedSoFar",
      "outputs": [
        {
          "internalType": "uint256",
          "name": "",
          "type": "uint256"
        }
      ],
      "stateMutability": "view",
      "type": "function"
    },
    {
      "inputs": [
        {
          "internalType": "address",
          "name": "owner",
          "type": "address"
        },
        {
          "internalType": "address",
          "name": "operator",
          "type": "address"
        }
      ],
      "name": "isApprovedForAll",
      "outputs": [
        {
          "internalType": "bool",
          "name": "",
          "type": "bool"
        }
      ],
      "stateMutability": "view",
      "type": "function"
    },
    {
      "inputs": [],
      "name": "makeAnEpicNFT",
      "outputs": [],
      "stateMutability": "nonpayable",
      "type": "function"
    },
    {
      "inputs": [],
      "name": "name",
      "outputs": [
        {
          "internalType": "string",
          "name": "",
          "type": "string"
        }
      ],
      "stateMutability": "view",
      "type": "function"
    },
    {
      "inputs": [
        {
          "internalType": "uint256",
          "name": "tokenId",
          "type": "uint256"
        }
      ],
      "name": "ownerOf",
      "outputs": [
        {
          "internalType": "address",
          "name": "",
          "type": "address"
        }
      ],
      "stateMutability": "view",
      "type": "function"
    },
    {
      "inputs": [
        {
          "internalType": "uint256",
          "name": "tokenId",
          "type": "uint256"
        }
      ],
      "name": "pickRandomFirstWord",
      "outputs": [
        {
          "internalType": "string",
          "name": "",
          "type": "string"
        }
      ],
      "stateMutability": "view",
      "type": "function"
    },
    {
      "inputs": [
        {
          "internalType": "uint256",
          "name": "tokenId",
          "type": "uint256"
        }
      ],
      "name": "pickRandomSecondWord",
      "outputs": [
        {
          "internalType": "string",
          "name": "",
          "type": "string"
        }
      ],
      "stateMutability": "view",
      "type": "function"
    },
    {
      "inputs": [
        {
          "internalType": "uint256",
          "name": "tokenId",
          "type": "uint256"
        }
      ],
      "name": "pickRandomThirdWord",
      "outputs": [
        {
          "internalType": "string",
          "name": "",
          "type": "string"
        }
      ],
      "stateMutability": "view",
      "type": "function"
    },
    {
      "inputs": [
        {
          "internalType": "address",
          "name": "from",
          "type": "address"
        },
        {
          "internalType": "address",
          "name": "to",
          "type": "address"
        },
        {
          "internalType": "uint256",
          "name": "tokenId",
          "type": "uint256"
        }
      ],
      "name": "safeTransferFrom",
      "outputs": [],
      "stateMutability": "nonpayable",
      "type": "function"
    },
    {
      "inputs": [
        {
          "internalType": "address",
          "name": "from",
          "type": "address"
        },
        {
          "internalType": "address",
          "name": "to",
          "type": "address"
        },
        {
          "internalType": "uint256",
          "name": "tokenId",
          "type": "uint256"
        },
        {
          "internalType": "bytes",
          "name": "_data",
          "type": "bytes"
        }
      ],
      "name": "safeTransferFrom",
      "outputs": [],
      "stateMutability": "nonpayable",
      "type": "function"
    },
    {
      "inputs": [
        {
          "internalType": "address",
          "name": "operator",
          "type": "address"
        },
        {
          "internalType": "bool",
          "name": "approved",
          "type": "bool"
        }
      ],
      "name": "setApprovalForAll",
      "outputs": [],
      "stateMutability": "nonpayable",
      "type": "function"
    },
    {
      "inputs": [
        {
          "internalType": "bytes4",
          "name": "interfaceId",
          "type": "bytes4"
        }
      ],
      "name": "supportsInterface",
      "outputs": [
        {
          "internalType": "bool",
          "name": "",
          "type": "bool"
        }
      ],
      "stateMutability": "view",
      "type": "function"
    },
    {
      "inputs": [],
      "name": "symbol",
      "outputs": [
        {
          "internalType": "string",
          "name": "",
          "type": "string"
        }
      ],
      "stateMutability": "view",
      "type": "function"
    },
    {
      "inputs": [
        {
          "internalType": "uint256",
          "name": "tokenId",
          "type": "uint256"
        }
      ],
      "name": "tokenURI",
      "outputs": [
        {
          "internalType": "string",
          "name": "",
          "type": "string"
        }
      ],
      "stateMutability": "view",
      "type": "function"
    },
    {
      "inputs": [
        {
          "internalType": "address",
          "name": "from",
          "type": "address"
        },
        {
          "internalType": "address",
          "name": "to",
          "type": "address"
        },
        {
          "internalType": "uint256",
          "name": "tokenId",
          "type": "uint256"
        }
      ],
      "name": "transferFrom",
      "outputs": [],
      "stateMutability": "nonpayable",
      "type": "function"
    }
  ],
  "bytecode": "0x608060405260405180610160016040528061012f81526020016200430061012f913960089080519060200190620000389291906200067e565b506040518060c001604052806040518060400160405280600381526020017f486f74000000000000000000000000000000000000000000000000000000000081525081526020016040518060400160405280600481526020017f536578790000000000000000000000000000000000000000000000000000000081525081526020016040518060400160405280600a81526020017f496e6372656469626c650000000000000000000000000000000000000000000081525081526020016040518060400160405280600a81526020017f417474726163746976650000000000000000000000000000000000000000000081525081526020016040518060400160405280600881526020017f506c656173696e6700000000000000000000000000000000000000000000000081525081526020016040518060400160405280600b81526020017f506c656173757261626c650000000000000000000000000000000000000000008152508152506009906006620001b69291906200070f565b506040518060c001604052806040518060400160405280600681526020017f46656d616c65000000000000000000000000000000000000000000000000000081525081526020016040518060400160405280600581526020017f576f6d616e00000000000000000000000000000000000000000000000000000081525081526020016040518060400160405280600481526020017f4d616c650000000000000000000000000000000000000000000000000000000081525081526020016040518060400160405280600381526020017f4d616e000000000000000000000000000000000000000000000000000000000081525081526020016040518060400160405280600581526020017f5472616e7300000000000000000000000000000000000000000000000000000081525081526020016040518060400160405280600481526020017f5472617000000000000000000000000000000000000000000000000000000000815250815250600a906006620003349291906200070f565b506040518060c001604052806040518060400160405280600581526020017f426f6f627300000000000000000000000000000000000000000000000000000081525081526020016040518060400160405280600481526020017f4c6970730000000000000000000000000000000000000000000000000000000081525081526020016040518060400160405280600781526020017f446f6e676572730000000000000000000000000000000000000000000000000081525081526020016040518060400160405280600481526020017f427574740000000000000000000000000000000000000000000000000000000081525081526020016040518060400160405280600a81526020017f536563726574696f6e730000000000000000000000000000000000000000000081525081526020016040518060400160405280600581526020017f5075737379000000000000000000000000000000000000000000000000000000815250815250600b906006620004b29291906200070f565b50348015620004c057600080fd5b506040518060400160405280601781526020017f4e6f7420417070726f70726961746520506872617365730000000000000000008152506040518060400160405280600681526020017f4352494e474500000000000000000000000000000000000000000000000000008152508160009080519060200190620005459291906200067e565b5080600190805190602001906200055e9291906200067e565b505050620005ac6040518060400160405280601881526020017f74686973206973206d7920636f6e747261637420627261680000000000000000815250620005b260201b620011a91760201c565b62000930565b6200065281604051602401620005c9919062000844565b6040516020818303038152906040527f41304fac000000000000000000000000000000000000000000000000000000007bffffffffffffffffffffffffffffffffffffffffffffffffffffffff19166020820180517bffffffffffffffffffffffffffffffffffffffffffffffffffffffff83818316178352505050506200065560201b60201c565b50565b60008151905060006a636f6e736f6c652e6c6f679050602083016000808483855afa5050505050565b8280546200068c90620008ba565b90600052602060002090601f016020900481019282620006b05760008555620006fc565b82601f10620006cb57805160ff1916838001178555620006fc565b82800160010185558215620006fc579182015b82811115620006fb578251825591602001919060010190620006de565b5b5090506200070b919062000776565b5090565b82805482825590600052602060002090810192821562000763579160200282015b8281111562000762578251829080519060200190620007519291906200067e565b509160200191906001019062000730565b5b50905062000772919062000795565b5090565b5b808211156200079157600081600090555060010162000777565b5090565b5b80821115620007b95760008181620007af9190620007bd565b5060010162000796565b5090565b508054620007cb90620008ba565b6000825580601f10620007df575062000800565b601f016020900490600052602060002090810190620007ff919062000776565b5b50565b6000620008108262000868565b6200081c818562000873565b93506200082e81856020860162000884565b62000839816200091f565b840191505092915050565b6000602082019050818103600083015262000860818462000803565b905092915050565b600081519050919050565b600082825260208201905092915050565b60005b83811015620008a457808201518184015260208101905062000887565b83811115620008b4576000848401525b50505050565b60006002820490506001821680620008d357607f821691505b60208210811415620008ea57620008e9620008f0565b5b50919050565b7f4e487b7100000000000000000000000000000000000000000000000000000000600052602260045260246000fd5b6000601f19601f8301169050919050565b6139c080620009406000396000f3fe608060405234801561001057600080fd5b50600436106101165760003560e01c806370a08231116100a2578063b88d4fde11610071578063b88d4fde14610305578063c575757a14610321578063c87b56dd14610351578063de9d132f14610381578063e985e9c51461038b57610116565b806370a082311461026b57806395d89b411461029b578063a22cb465146102b9578063b187301f146102d557610116565b8063095ea7b3116100e9578063095ea7b3146101b757806323b872dd146101d35780632de38d68146101ef57806342842e0e1461021f5780636352211e1461023b57610116565b806301ffc9a71461011b578063060475901461014b57806306fdde0314610169578063081812fc14610187575b600080fd5b6101356004803603810190610130919061258a565b6103bb565b6040516101429190613234565b60405180910390f35b61015361049d565b60405161016091906134af565b60405180910390f35b6101716104ae565b60405161017e919061324f565b60405180910390f35b6101a1600480360381019061019c91906125dc565b610540565b6040516101ae91906131a4565b60405180910390f35b6101d160048036038101906101cc919061254e565b6105c5565b005b6101ed60048036038101906101e89190612448565b6106dd565b005b610209600480360381019061020491906125dc565b61073d565b604051610216919061324f565b60405180910390f35b61023960048036038101906102349190612448565b61085b565b005b610255600480360381019061025091906125dc565b61087b565b60405161026291906131a4565b60405180910390f35b610285600480360381019061028091906123e3565b61092d565b60405161029291906134af565b60405180910390f35b6102a36109e5565b6040516102b0919061324f565b60405180910390f35b6102d360048036038101906102ce9190612512565b610a77565b005b6102ef60048036038101906102ea91906125dc565b610a8d565b6040516102fc919061324f565b60405180910390f35b61031f600480360381019061031a9190612497565b610bab565b005b61033b600480360381019061033691906125dc565b610c0d565b604051610348919061324f565b60405180910390f35b61036b600480360381019061036691906125dc565b610d2b565b604051610378919061324f565b60405180910390f35b610389610e7d565b005b6103a560048036038101906103a0919061240c565b611115565b6040516103b29190613234565b60405180910390f35b60007f80ac58cd000000000000000000000000000000000000000000000000000000007bffffffffffffffffffffffffffffffffffffffffffffffffffffffff1916827bffffffffffffffffffffffffffffffffffffffffffffffffffffffff1916148061048657507f5b5e139f000000000000000000000000000000000000000000000000000000007bffffffffffffffffffffffffffffffffffffffffffffffffffffffff1916827bffffffffffffffffffffffffffffffffffffffffffffffffffffffff1916145b80610496575061049582611242565b5b9050919050565b60006104a960076112ac565b905090565b6060600080546104bd9061374e565b80601f01602080910402602001604051908101604052809291908181526020018280546104e99061374e565b80156105365780601f1061050b57610100808354040283529160200191610536565b820191906000526020600020905b81548152906001019060200180831161051957829003601f168201915b5050505050905090565b600061054b826112ba565b61058a576040517f08c379a00000000000000000000000000000000000000000000000000000000081526004016105819061340f565b60405180910390fd5b6004600083815260200190815260200160002060009054906101000a900473ffffffffffffffffffffffffffffffffffffffff169050919050565b60006105d08261087b565b90508073ffffffffffffffffffffffffffffffffffffffff168373ffffffffffffffffffffffffffffffffffffffff161415610641576040517f08c379a00000000000000000000000000000000000000000000000000000000081526004016106389061346f565b60405180910390fd5b8073ffffffffffffffffffffffffffffffffffffffff16610660611326565b73ffffffffffffffffffffffffffffffffffffffff16148061068f575061068e81610689611326565b611115565b5b6106ce576040517f08c379a00000000000000000000000000000000000000000000000000000000081526004016106c59061334f565b60405180910390fd5b6106d8838361132e565b505050565b6106ee6106e8611326565b826113e7565b61072d576040517f08c379a00000000000000000000000000000000000000000000000000000000081526004016107249061348f565b60405180910390fd5b6107388383836114c5565b505050565b6060600061077161074d84611721565b60405160200161075d9190613160565b6040516020818303038152906040526118ce565b90506009805490508161078491906137c9565b9050600981815481106107c0577f4e487b7100000000000000000000000000000000000000000000000000000000600052603260045260246000fd5b9060005260206000200180546107d59061374e565b80601f01602080910402602001604051908101604052809291908181526020018280546108019061374e565b801561084e5780601f106108235761010080835404028352916020019161084e565b820191906000526020600020905b81548152906001019060200180831161083157829003601f168201915b5050505050915050919050565b61087683838360405180602001604052806000815250610bab565b505050565b6000806002600084815260200190815260200160002060009054906101000a900473ffffffffffffffffffffffffffffffffffffffff169050600073ffffffffffffffffffffffffffffffffffffffff168173ffffffffffffffffffffffffffffffffffffffff161415610924576040517f08c379a000000000000000000000000000000000000000000000000000000000815260040161091b9061338f565b60405180910390fd5b80915050919050565b60008073ffffffffffffffffffffffffffffffffffffffff168273ffffffffffffffffffffffffffffffffffffffff16141561099e576040517f08c379a00000000000000000000000000000000000000000000000000000000081526004016109959061336f565b60405180910390fd5b600360008373ffffffffffffffffffffffffffffffffffffffff1673ffffffffffffffffffffffffffffffffffffffff168152602001908152602001600020549050919050565b6060600180546109f49061374e565b80601f0160208091040260200160405190810160405280929190818152602001828054610a209061374e565b8015610a6d5780601f10610a4257610100808354040283529160200191610a6d565b820191906000526020600020905b815481529060010190602001808311610a5057829003601f168201915b5050505050905090565b610a89610a82611326565b8383611901565b5050565b60606000610ac1610a9d84611721565b604051602001610aad91906130f9565b6040516020818303038152906040526118ce565b9050600a8054905081610ad491906137c9565b9050600a8181548110610b10577f4e487b7100000000000000000000000000000000000000000000000000000000600052603260045260246000fd5b906000526020600020018054610b259061374e565b80601f0160208091040260200160405190810160405280929190818152602001828054610b519061374e565b8015610b9e5780601f10610b7357610100808354040283529160200191610b9e565b820191906000526020600020905b815481529060010190602001808311610b8157829003601f168201915b5050505050915050919050565b610bbc610bb6611326565b836113e7565b610bfb576040517f08c379a0000000000000000000000000000000000000000000000000000000008152600401610bf29061348f565b60405180910390fd5b610c0784848484611a6e565b50505050565b60606000610c41610c1d84611721565b604051602001610c2d91906130d7565b6040516020818303038152906040526118ce565b9050600b8054905081610c5491906137c9565b9050600b8181548110610c90577f4e487b7100000000000000000000000000000000000000000000000000000000600052603260045260246000fd5b906000526020600020018054610ca59061374e565b80601f0160208091040260200160405190810160405280929190818152602001828054610cd19061374e565b8015610d1e5780601f10610cf357610100808354040283529160200191610d1e565b820191906000526020600020905b815481529060010190602001808311610d0157829003601f168201915b5050505050915050919050565b6060610d36826112ba565b610d75576040517f08c379a0000000000000000000000000000000000000000000000000000000008152600401610d6c906133ef565b60405180910390fd5b6000600660008481526020019081526020016000208054610d959061374e565b80601f0160208091040260200160405190810160405280929190818152602001828054610dc19061374e565b8015610e0e5780601f10610de357610100808354040283529160200191610e0e565b820191906000526020600020905b815481529060010190602001808311610df157829003601f168201915b505050505090506000610e1f611aca565b9050600081511415610e35578192505050610e78565b600082511115610e6a578082604051602001610e52929190613031565b60405160208183030381529060405292505050610e78565b610e7384611ae1565b925050505b919050565b6000610e8960076112ac565b905060328110610e9857600080fd5b6000610ea38261073d565b90506000610eb083610a8d565b90506000610ebd84610c0d565b90506000838383604051602001610ed693929190613055565b60405160208183030381529060405290506000600882604051602001610efd929190613086565b6040516020818303038152906040529050610f4c6040518060400160405280600b81526020017f0a2d2d2d2d2d2d2d2d2d2d0000000000000000000000000000000000000000008152506111a9565b610f55816111a9565b610f936040518060400160405280600a81526020017f2d2d2d2d2d2d2d2d2d0a000000000000000000000000000000000000000000008152506111a9565b6000610fc783610fa284611b88565b604051602001610fb392919061311b565b604051602081830303815290604052611b88565b9050600081604051602001610fdc9190613182565b604051602081830303815290604052905061102b6040518060400160405280601581526020017f0a2d2d2d2d2d2d2d2d2d2d2d2d2d2d2d2d2d2d2d2d00000000000000000000008152506111a9565b6110538160405160200161103f91906130b5565b6040516020818303038152906040526111a9565b6110916040518060400160405280601581526020017f2d2d2d2d2d2d2d2d2d2d2d2d2d2d2d2d2d2d2d2d0a00000000000000000000008152506111a9565b61109b3389611d27565b6110a58882611d45565b6110c8604051806060016040528060278152602001613964602791398933611db9565b6110d26007611e58565b7febb98688741ffa4c7589bf325de30cf7becb63de567842e1ccdb6cb949fdc82c338960405161110392919061320b565b60405180910390a15050505050505050565b6000600560008473ffffffffffffffffffffffffffffffffffffffff1673ffffffffffffffffffffffffffffffffffffffff16815260200190815260200160002060008373ffffffffffffffffffffffffffffffffffffffff1673ffffffffffffffffffffffffffffffffffffffff16815260200190815260200160002060009054906101000a900460ff16905092915050565b61123f816040516024016111bd919061324f565b6040516020818303038152906040527f41304fac000000000000000000000000000000000000000000000000000000007bffffffffffffffffffffffffffffffffffffffffffffffffffffffff19166020820180517bffffffffffffffffffffffffffffffffffffffffffffffffffffffff8381831617835250505050611e6e565b50565b60007f01ffc9a7000000000000000000000000000000000000000000000000000000007bffffffffffffffffffffffffffffffffffffffffffffffffffffffff1916827bffffffffffffffffffffffffffffffffffffffffffffffffffffffff1916149050919050565b600081600001549050919050565b60008073ffffffffffffffffffffffffffffffffffffffff166002600084815260200190815260200160002060009054906101000a900473ffffffffffffffffffffffffffffffffffffffff1673ffffffffffffffffffffffffffffffffffffffff1614159050919050565b600033905090565b816004600083815260200190815260200160002060006101000a81548173ffffffffffffffffffffffffffffffffffffffff021916908373ffffffffffffffffffffffffffffffffffffffff160217905550808273ffffffffffffffffffffffffffffffffffffffff166113a18361087b565b73ffffffffffffffffffffffffffffffffffffffff167f8c5be1e5ebec7d5bd14f71427d1e84f3dd0314c0f7b2291e5b200ac8c7c3b92560405160405180910390a45050565b60006113f2826112ba565b611431576040517f08c379a00000000000000000000000000000000000000000000000000000000081526004016114289061332f565b60405180910390fd5b600061143c8361087b565b90508073ffffffffffffffffffffffffffffffffffffffff168473ffffffffffffffffffffffffffffffffffffffff1614806114ab57508373ffffffffffffffffffffffffffffffffffffffff1661149384610540565b73ffffffffffffffffffffffffffffffffffffffff16145b806114bc57506114bb8185611115565b5b91505092915050565b8273ffffffffffffffffffffffffffffffffffffffff166114e58261087b565b73ffffffffffffffffffffffffffffffffffffffff161461153b576040517f08c379a00000000000000000000000000000000000000000000000000000000081526004016115329061342f565b60405180910390fd5b600073ffffffffffffffffffffffffffffffffffffffff168273ffffffffffffffffffffffffffffffffffffffff1614156115ab576040517f08c379a00000000000000000000000000000000000000000000000000000000081526004016115a2906132ef565b60405180910390fd5b6115b6838383611e97565b6115c160008261132e565b6001600360008573ffffffffffffffffffffffffffffffffffffffff1673ffffffffffffffffffffffffffffffffffffffff16815260200190815260200160002060008282546116119190613664565b925050819055506001600360008473ffffffffffffffffffffffffffffffffffffffff1673ffffffffffffffffffffffffffffffffffffffff16815260200190815260200160002060008282546116689190613583565b92505081905550816002600083815260200190815260200160002060006101000a81548173ffffffffffffffffffffffffffffffffffffffff021916908373ffffffffffffffffffffffffffffffffffffffff160217905550808273ffffffffffffffffffffffffffffffffffffffff168473ffffffffffffffffffffffffffffffffffffffff167fddf252ad1be2c89b69c2b068fc378daa952ba7f163c4a11628f55a4df523b3ef60405160405180910390a4505050565b60606000821415611769576040518060400160405280600181526020017f300000000000000000000000000000000000000000000000000000000000000081525090506118c9565b600082905060005b6000821461179b57808061178490613780565b915050600a8261179491906135d9565b9150611771565b60008167ffffffffffffffff8111156117dd577f4e487b7100000000000000000000000000000000000000000000000000000000600052604160045260246000fd5b6040519080825280601f01601f19166020018201604052801561180f5781602001600182028036833780820191505090505b5090505b600085146118c2576001826118289190613664565b9150600a8561183791906137c9565b60306118439190613583565b60f81b81838151811061187f577f4e487b7100000000000000000000000000000000000000000000000000000000600052603260045260246000fd5b60200101907effffffffffffffffffffffffffffffffffffffffffffffffffffffffffffff1916908160001a905350600a856118bb91906135d9565b9450611813565b8093505050505b919050565b6000816040516020016118e1919061301a565b6040516020818303038152906040528051906020012060001c9050919050565b8173ffffffffffffffffffffffffffffffffffffffff168373ffffffffffffffffffffffffffffffffffffffff161415611970576040517f08c379a00000000000000000000000000000000000000000000000000000000081526004016119679061330f565b60405180910390fd5b80600560008573ffffffffffffffffffffffffffffffffffffffff1673ffffffffffffffffffffffffffffffffffffffff16815260200190815260200160002060008473ffffffffffffffffffffffffffffffffffffffff1673ffffffffffffffffffffffffffffffffffffffff16815260200190815260200160002060006101000a81548160ff0219169083151502179055508173ffffffffffffffffffffffffffffffffffffffff168373ffffffffffffffffffffffffffffffffffffffff167f17307eab39ab6107e8899845ad3d59bd9653f200f220920489ca2b5937696c3183604051611a619190613234565b60405180910390a3505050565b611a798484846114c5565b611a8584848484611e9c565b611ac4576040517f08c379a0000000000000000000000000000000000000000000000000000000008152600401611abb906132af565b60405180910390fd5b50505050565b606060405180602001604052806000815250905090565b6060611aec826112ba565b611b2b576040517f08c379a0000000000000000000000000000000000000000000000000000000008152600401611b229061344f565b60405180910390fd5b6000611b35611aca565b90506000815111611b555760405180602001604052806000815250611b80565b80611b5f84611721565b604051602001611b70929190613031565b6040516020818303038152906040525b915050919050565b6060600082511415611bab57604051806020016040528060008152509050611d22565b60006040518060600160405280604081526020016139246040913990506000600360028551611bda9190613583565b611be491906135d9565b6004611bf0919061360a565b90506000602082611c019190613583565b67ffffffffffffffff811115611c40577f4e487b7100000000000000000000000000000000000000000000000000000000600052604160045260246000fd5b6040519080825280601f01601f191660200182016040528015611c725781602001600182028036833780820191505090505b509050818152600183018586518101602084015b81831015611ce1576003830192508251603f8160121c168501518253600182019150603f81600c1c168501518253600182019150603f8160061c168501518253600182019150603f8116850151825360018201915050611c86565b600389510660018114611cfb5760028114611d0b57611d16565b613d3d60f01b6002830352611d16565b603d60f81b60018303525b50505050508093505050505b919050565b611d41828260405180602001604052806000815250612033565b5050565b611d4e826112ba565b611d8d576040517f08c379a0000000000000000000000000000000000000000000000000000000008152600401611d84906133af565b60405180910390fd5b80600660008481526020019081526020016000209080519060200190611db492919061226f565b505050565b611e53838383604051602401611dd193929190613271565b6040516020818303038152906040527fe3849f79000000000000000000000000000000000000000000000000000000007bffffffffffffffffffffffffffffffffffffffffffffffffffffffff19166020820180517bffffffffffffffffffffffffffffffffffffffffffffffffffffffff8381831617835250505050611e6e565b505050565b6001816000016000828254019250508190555050565b60008151905060006a636f6e736f6c652e6c6f679050602083016000808483855afa5050505050565b505050565b6000611ebd8473ffffffffffffffffffffffffffffffffffffffff1661208e565b15612026578373ffffffffffffffffffffffffffffffffffffffff1663150b7a02611ee6611326565b8786866040518563ffffffff1660e01b8152600401611f0894939291906131bf565b602060405180830381600087803b158015611f2257600080fd5b505af1925050508015611f5357506040513d601f19601f82011682018060405250810190611f5091906125b3565b60015b611fd6573d8060008114611f83576040519150601f19603f3d011682016040523d82523d6000602084013e611f88565b606091505b50600081511415611fce576040517f08c379a0000000000000000000000000000000000000000000000000000000008152600401611fc5906132af565b60405180910390fd5b805181602001fd5b63150b7a0260e01b7bffffffffffffffffffffffffffffffffffffffffffffffffffffffff1916817bffffffffffffffffffffffffffffffffffffffffffffffffffffffff19161491505061202b565b600190505b949350505050565b61203d83836120a1565b61204a6000848484611e9c565b612089576040517f08c379a0000000000000000000000000000000000000000000000000000000008152600401612080906132af565b60405180910390fd5b505050565b600080823b905060008111915050919050565b600073ffffffffffffffffffffffffffffffffffffffff168273ffffffffffffffffffffffffffffffffffffffff161415612111576040517f08c379a0000000000000000000000000000000000000000000000000000000008152600401612108906133cf565b60405180910390fd5b61211a816112ba565b1561215a576040517f08c379a0000000000000000000000000000000000000000000000000000000008152600401612151906132cf565b60405180910390fd5b61216660008383611e97565b6001600360008473ffffffffffffffffffffffffffffffffffffffff1673ffffffffffffffffffffffffffffffffffffffff16815260200190815260200160002060008282546121b69190613583565b92505081905550816002600083815260200190815260200160002060006101000a81548173ffffffffffffffffffffffffffffffffffffffff021916908373ffffffffffffffffffffffffffffffffffffffff160217905550808273ffffffffffffffffffffffffffffffffffffffff16600073ffffffffffffffffffffffffffffffffffffffff167fddf252ad1be2c89b69c2b068fc378daa952ba7f163c4a11628f55a4df523b3ef60405160405180910390a45050565b82805461227b9061374e565b90600052602060002090601f01602090048101928261229d57600085556122e4565b82601f106122b657805160ff19168380011785556122e4565b828001600101855582156122e4579182015b828111156122e35782518255916020019190600101906122c8565b5b5090506122f191906122f5565b5090565b5b8082111561230e5760008160009055506001016122f6565b5090565b6000612325612320846134fb565b6134ca565b90508281526020810184848401111561233d57600080fd5b61234884828561370c565b509392505050565b60008135905061235f816138c7565b92915050565b600081359050612374816138de565b92915050565b600081359050612389816138f5565b92915050565b60008151905061239e816138f5565b92915050565b600082601f8301126123b557600080fd5b81356123c5848260208601612312565b91505092915050565b6000813590506123dd8161390c565b92915050565b6000602082840312156123f557600080fd5b600061240384828501612350565b91505092915050565b6000806040838503121561241f57600080fd5b600061242d85828601612350565b925050602061243e85828601612350565b9150509250929050565b60008060006060848603121561245d57600080fd5b600061246b86828701612350565b935050602061247c86828701612350565b925050604061248d868287016123ce565b9150509250925092565b600080600080608085870312156124ad57600080fd5b60006124bb87828801612350565b94505060206124cc87828801612350565b93505060406124dd878288016123ce565b925050606085013567ffffffffffffffff8111156124fa57600080fd5b612506878288016123a4565b91505092959194509250565b6000806040838503121561252557600080fd5b600061253385828601612350565b925050602061254485828601612365565b9150509250929050565b6000806040838503121561256157600080fd5b600061256f85828601612350565b9250506020612580858286016123ce565b9150509250929050565b60006020828403121561259c57600080fd5b60006125aa8482850161237a565b91505092915050565b6000602082840312156125c557600080fd5b60006125d38482850161238f565b91505092915050565b6000602082840312156125ee57600080fd5b60006125fc848285016123ce565b91505092915050565b61260e81613698565b82525050565b61261d816136aa565b82525050565b600061262e82613540565b6126388185613556565b935061264881856020860161371b565b612651816138b6565b840191505092915050565b60006126678261354b565b6126718185613567565b935061268181856020860161371b565b61268a816138b6565b840191505092915050565b60006126a08261354b565b6126aa8185613578565b93506126ba81856020860161371b565b80840191505092915050565b600081546126d38161374e565b6126dd8186613578565b945060018216600081146126f857600181146127095761273c565b60ff1983168652818601935061273c565b6127128561352b565b60005b8381101561273457815481890152600182019150602081019050612715565b838801955050505b50505092915050565b6000612752602583613578565b91507f68747470733a2f2f6e6674707265766965772e30786465762e636f6465732f3f60008301527f636f64653d0000000000000000000000000000000000000000000000000000006020830152602582019050919050565b60006127b8606f83613578565b91507f222c20226465736372697074696f6e223a2022412076657279206372696e676560008301527f7920616e6420696e6e6170726f70726961746520636f6c6c656374696f6e206f60208301527f6620776f7264732e222c2022696d616765223a2022646174613a696d6167652f60408301527f7376672b786d6c3b6261736536342c00000000000000000000000000000000006060830152606f82019050919050565b600061286a603283613567565b91507f4552433732313a207472616e7366657220746f206e6f6e20455243373231526560008301527f63656976657220696d706c656d656e74657200000000000000000000000000006020830152604082019050919050565b60006128d0601c83613567565b91507f4552433732313a20746f6b656e20616c7265616479206d696e746564000000006000830152602082019050919050565b6000612910600a83613578565b91507f54484952445f574f5244000000000000000000000000000000000000000000006000830152600a82019050919050565b6000612950602483613567565b91507f4552433732313a207472616e7366657220746f20746865207a65726f2061646460008301527f72657373000000000000000000000000000000000000000000000000000000006020830152604082019050919050565b60006129b6601983613567565b91507f4552433732313a20617070726f766520746f2063616c6c6572000000000000006000830152602082019050919050565b60006129f6600b83613578565b91507f5345434f4e445f574f52440000000000000000000000000000000000000000006000830152600b82019050919050565b6000612a36602c83613567565b91507f4552433732313a206f70657261746f7220717565727920666f72206e6f6e657860008301527f697374656e7420746f6b656e00000000000000000000000000000000000000006020830152604082019050919050565b6000612a9c600d83613578565b91507f3c2f746578743e3c2f7376673e000000000000000000000000000000000000006000830152600d82019050919050565b6000612adc603883613567565b91507f4552433732313a20617070726f76652063616c6c6572206973206e6f74206f7760008301527f6e6572206e6f7220617070726f76656420666f7220616c6c00000000000000006020830152604082019050919050565b6000612b42602a83613567565b91507f4552433732313a2062616c616e636520717565727920666f7220746865207a6560008301527f726f2061646472657373000000000000000000000000000000000000000000006020830152604082019050919050565b6000612ba8602983613567565b91507f4552433732313a206f776e657220717565727920666f72206e6f6e657869737460008301527f656e7420746f6b656e00000000000000000000000000000000000000000000006020830152604082019050919050565b6000612c0e602e83613567565b91507f45524337323155524953746f726167653a2055524920736574206f66206e6f6e60008301527f6578697374656e7420746f6b656e0000000000000000000000000000000000006020830152604082019050919050565b6000612c74600283613578565b91507f227d0000000000000000000000000000000000000000000000000000000000006000830152600282019050919050565b6000612cb4602083613567565b91507f4552433732313a206d696e7420746f20746865207a65726f20616464726573736000830152602082019050919050565b6000612cf4603183613567565b91507f45524337323155524953746f726167653a2055524920717565727920666f722060008301527f6e6f6e6578697374656e7420746f6b656e0000000000000000000000000000006020830152604082019050919050565b6000612d5a602c83613567565b91507f4552433732313a20617070726f76656420717565727920666f72206e6f6e657860008301527f697374656e7420746f6b656e00000000000000000000000000000000000000006020830152604082019050919050565b6000612dc0602983613567565b91507f4552433732313a207472616e73666572206f6620746f6b656e2074686174206960008301527f73206e6f74206f776e00000000000000000000000000000000000000000000006020830152604082019050919050565b6000612e26602f83613567565b91507f4552433732314d657461646174613a2055524920717565727920666f72206e6f60008301527f6e6578697374656e7420746f6b656e00000000000000000000000000000000006020830152604082019050919050565b6000612e8c600a83613578565b91507f7b226e616d65223a2022000000000000000000000000000000000000000000006000830152600a82019050919050565b6000612ecc602183613567565b91507f4552433732313a20617070726f76616c20746f2063757272656e74206f776e6560008301527f72000000000000000000000000000000000000000000000000000000000000006020830152604082019050919050565b6000612f32600a83613578565b91507f46495253545f574f5244000000000000000000000000000000000000000000006000830152600a82019050919050565b6000612f72601d83613578565b91507f646174613a6170706c69636174696f6e2f6a736f6e3b6261736536342c0000006000830152601d82019050919050565b6000612fb2603183613567565b91507f4552433732313a207472616e736665722063616c6c6572206973206e6f74206f60008301527f776e6572206e6f7220617070726f7665640000000000000000000000000000006020830152604082019050919050565b61301481613702565b82525050565b60006130268284612695565b915081905092915050565b600061303d8285612695565b91506130498284612695565b91508190509392505050565b60006130618286612695565b915061306d8285612695565b91506130798284612695565b9150819050949350505050565b600061309282856126c6565b915061309e8284612695565b91506130a982612a8f565b91508190509392505050565b60006130c082612745565b91506130cc8284612695565b915081905092915050565b60006130e282612903565b91506130ee8284612695565b915081905092915050565b6000613104826129e9565b91506131108284612695565b915081905092915050565b600061312682612e7f565b91506131328285612695565b915061313d826127ab565b91506131498284612695565b915061315482612c67565b91508190509392505050565b600061316b82612f25565b91506131778284612695565b915081905092915050565b600061318d82612f65565b91506131998284612695565b915081905092915050565b60006020820190506131b96000830184612605565b92915050565b60006080820190506131d46000830187612605565b6131e16020830186612605565b6131ee604083018561300b565b81810360608301526132008184612623565b905095945050505050565b60006040820190506132206000830185612605565b61322d602083018461300b565b9392505050565b60006020820190506132496000830184612614565b92915050565b60006020820190508181036000830152613269818461265c565b905092915050565b6000606082019050818103600083015261328b818661265c565b905061329a602083018561300b565b6132a76040830184612605565b949350505050565b600060208201905081810360008301526132c88161285d565b9050919050565b600060208201905081810360008301526132e8816128c3565b9050919050565b6000602082019050818103600083015261330881612943565b9050919050565b60006020820190508181036000830152613328816129a9565b9050919050565b6000602082019050818103600083015261334881612a29565b9050919050565b6000602082019050818103600083015261336881612acf565b9050919050565b6000602082019050818103600083015261338881612b35565b9050919050565b600060208201905081810360008301526133a881612b9b565b9050919050565b600060208201905081810360008301526133c881612c01565b9050919050565b600060208201905081810360008301526133e881612ca7565b9050919050565b6000602082019050818103600083015261340881612ce7565b9050919050565b6000602082019050818103600083015261342881612d4d565b9050919050565b6000602082019050818103600083015261344881612db3565b9050919050565b6000602082019050818103600083015261346881612e19565b9050919050565b6000602082019050818103600083015261348881612ebf565b9050919050565b600060208201905081810360008301526134a881612fa5565b9050919050565b60006020820190506134c4600083018461300b565b92915050565b6000604051905081810181811067ffffffffffffffff821117156134f1576134f0613887565b5b8060405250919050565b600067ffffffffffffffff82111561351657613515613887565b5b601f19601f8301169050602081019050919050565b60008190508160005260206000209050919050565b600081519050919050565b600081519050919050565b600082825260208201905092915050565b600082825260208201905092915050565b600081905092915050565b600061358e82613702565b915061359983613702565b9250827fffffffffffffffffffffffffffffffffffffffffffffffffffffffffffffffff038211156135ce576135cd6137fa565b5b828201905092915050565b60006135e482613702565b91506135ef83613702565b9250826135ff576135fe613829565b5b828204905092915050565b600061361582613702565b915061362083613702565b9250817fffffffffffffffffffffffffffffffffffffffffffffffffffffffffffffffff0483118215151615613659576136586137fa565b5b828202905092915050565b600061366f82613702565b915061367a83613702565b92508282101561368d5761368c6137fa565b5b828203905092915050565b60006136a3826136e2565b9050919050565b60008115159050919050565b60007fffffffff0000000000000000000000000000000000000000000000000000000082169050919050565b600073ffffffffffffffffffffffffffffffffffffffff82169050919050565b6000819050919050565b82818337600083830152505050565b60005b8381101561373957808201518184015260208101905061371e565b83811115613748576000848401525b50505050565b6000600282049050600182168061376657607f821691505b6020821081141561377a57613779613858565b5b50919050565b600061378b82613702565b91507fffffffffffffffffffffffffffffffffffffffffffffffffffffffffffffffff8214156137be576137bd6137fa565b5b600182019050919050565b60006137d482613702565b91506137df83613702565b9250826137ef576137ee613829565b5b828206905092915050565b7f4e487b7100000000000000000000000000000000000000000000000000000000600052601160045260246000fd5b7f4e487b7100000000000000000000000000000000000000000000000000000000600052601260045260246000fd5b7f4e487b7100000000000000000000000000000000000000000000000000000000600052602260045260246000fd5b7f4e487b7100000000000000000000000000000000000000000000000000000000600052604160045260246000fd5b6000601f19601f8301169050919050565b6138d081613698565b81146138db57600080fd5b50565b6138e7816136aa565b81146138f257600080fd5b50565b6138fe816136b6565b811461390957600080fd5b50565b61391581613702565b811461392057600080fd5b5056fe4142434445464748494a4b4c4d4e4f505152535455565758595a6162636465666768696a6b6c6d6e6f707172737475767778797a303132333435363738392b2f416e204e4654207769746820494420257320686173206265656e206d696e74656420746f202573a2646970667358221220d912bdf2a4875fa0937d99c8f371a98a643cc70b6bb19059e2cadbaa1b57f33364736f6c634300080000333c73766720786d6c6e733d27687474703a2f2f7777772e77332e6f72672f323030302f73766727207072657365727665417370656374526174696f3d27784d696e594d696e206d656574272076696577426f783d273020302033353020333530273e3c7374796c653e2e62617365207b2066696c6c3a2077686974653b20666f6e742d66616d696c793a2073657269663b20666f6e742d73697a653a20323470783b207d3c2f7374796c653e3c726563742077696474683d273130302527206865696768743d2731303025272066696c6c3d27626c61636b27202f3e3c7465787420783d273530252720793d273530252720636c6173733d27626173652720646f6d696e616e742d626173656c696e653d276d6964646c652720746578742d616e63686f723d276d6964646c65273e",
  "linkReferences": {},
  "deployedLinkReferences": {}
}